{
  "_format": "hh-sol-artifact-1",
  "contractName": "Digital_identity",
  "sourceName": "contracts/Digital_identity.sol",
  "abi": [
    {
      "inputs": [],
      "stateMutability": "nonpayable",
      "type": "constructor"
    },
    {
      "anonymous": false,
      "inputs": [
        {
          "indexed": true,
          "internalType": "address",
          "name": "student",
          "type": "address"
        },
        {
          "indexed": true,
          "internalType": "address",
          "name": "viewer",
          "type": "address"
        },
        {
          "indexed": true,
          "internalType": "address",
          "name": "institution",
          "type": "address"
        },
        {
          "indexed": false,
          "internalType": "string",
          "name": "certificateHash",
          "type": "string"
        }
      ],
      "name": "CertificateAccessGranted",
      "type": "event"
    },
    {
      "anonymous": false,
      "inputs": [
        {
          "indexed": true,
          "internalType": "address",
          "name": "platform",
          "type": "address"
        },
        {
          "indexed": true,
          "internalType": "address",
          "name": "student",
          "type": "address"
        },
        {
          "indexed": false,
          "internalType": "string",
          "name": "certificateName",
          "type": "string"
        }
      ],
      "name": "CertificateAdded",
      "type": "event"
    },
    {
      "anonymous": false,
      "inputs": [
        {
          "indexed": true,
          "internalType": "address",
          "name": "student",
          "type": "address"
        },
        {
          "indexed": true,
          "internalType": "address",
          "name": "institution",
          "type": "address"
        },
        {
          "indexed": false,
          "internalType": "string",
          "name": "certificateHash",
          "type": "string"
        }
      ],
      "name": "CertificateForStudentAdded",
      "type": "event"
    },
    {
      "anonymous": false,
      "inputs": [
        {
          "indexed": true,
          "internalType": "address",
          "name": "student",
          "type": "address"
        },
        {
          "indexed": true,
          "internalType": "address",
          "name": "institution",
          "type": "address"
        },
        {
          "indexed": false,
          "internalType": "string",
          "name": "certificateHash",
          "type": "string"
        }
      ],
      "name": "CertificateRemoved",
      "type": "event"
    },
    {
      "anonymous": false,
      "inputs": [
        {
          "indexed": true,
          "internalType": "address",
          "name": "collegeAddress",
          "type": "address"
        }
      ],
      "name": "CollegeAdded",
      "type": "event"
    },
    {
      "anonymous": false,
      "inputs": [
        {
          "indexed": true,
          "internalType": "address",
          "name": "college",
          "type": "address"
        },
        {
          "indexed": true,
          "internalType": "address",
          "name": "student",
          "type": "address"
        },
        {
          "indexed": false,
          "internalType": "string",
          "name": "certificateName",
          "type": "string"
        }
      ],
      "name": "CollegeCertificateAdded",
      "type": "event"
    },
    {
      "anonymous": false,
      "inputs": [
        {
          "indexed": true,
          "internalType": "address",
          "name": "onlinePlatformAddress",
          "type": "address"
        }
      ],
      "name": "OnlinePlatformAdded",
      "type": "event"
    },
    {
      "anonymous": false,
      "inputs": [
        {
          "indexed": true,
          "internalType": "address",
          "name": "student",
          "type": "address"
        },
        {
          "indexed": true,
          "internalType": "address",
          "name": "collegeAddress",
          "type": "address"
        }
      ],
      "name": "StudentAddedToCollege",
      "type": "event"
    },
    {
      "anonymous": false,
      "inputs": [
        {
          "indexed": true,
          "internalType": "address",
          "name": "student",
          "type": "address"
        },
        {
          "indexed": true,
          "internalType": "address",
          "name": "onlinePlatformAddress",
          "type": "address"
        }
      ],
      "name": "StudentAddedToOnlinePlatform",
      "type": "event"
    },
    {
      "inputs": [
        {
          "internalType": "string",
          "name": "certificateName",
          "type": "string"
        },
        {
          "internalType": "address",
          "name": "student",
          "type": "address"
        }
      ],
      "name": "addCertificate",
      "outputs": [],
      "stateMutability": "nonpayable",
      "type": "function"
    },
    {
      "inputs": [
        {
          "internalType": "string",
          "name": "certificateHash",
          "type": "string"
        },
        {
          "internalType": "address",
          "name": "educational_institution",
          "type": "address"
        }
      ],
      "name": "addCertificateForStudent",
      "outputs": [],
      "stateMutability": "nonpayable",
      "type": "function"
    },
    {
      "inputs": [
        {
          "internalType": "address",
          "name": "college_address",
          "type": "address"
        }
      ],
      "name": "addCollege",
      "outputs": [],
      "stateMutability": "nonpayable",
      "type": "function"
    },
    {
      "inputs": [
        {
          "internalType": "string",
          "name": "certificateName",
          "type": "string"
        },
        {
          "internalType": "address",
          "name": "student",
          "type": "address"
        }
      ],
      "name": "addCollegeCertificate",
      "outputs": [],
      "stateMutability": "nonpayable",
      "type": "function"
    },
    {
      "inputs": [
        {
          "internalType": "address",
          "name": "onlineplatform_address",
          "type": "address"
        }
      ],
      "name": "addOnlinePlatform",
      "outputs": [],
      "stateMutability": "nonpayable",
      "type": "function"
    },
    {
      "inputs": [
        {
          "internalType": "address",
          "name": "student",
          "type": "address"
        },
        {
          "internalType": "address",
          "name": "college_address",
          "type": "address"
        }
      ],
      "name": "addStudentToCollege",
      "outputs": [],
      "stateMutability": "nonpayable",
      "type": "function"
    },
    {
      "inputs": [
        {
          "internalType": "address",
          "name": "student",
          "type": "address"
        },
        {
          "internalType": "address",
          "name": "online_platform_address",
          "type": "address"
        }
      ],
      "name": "addStudentToOnlinePlatform",
      "outputs": [],
      "stateMutability": "nonpayable",
      "type": "function"
    },
    {
      "inputs": [
        {
          "internalType": "address",
          "name": "student",
          "type": "address"
        },
        {
          "internalType": "address",
          "name": "institution",
          "type": "address"
        },
        {
          "internalType": "string",
          "name": "certificateHash",
          "type": "string"
        }
      ],
      "name": "canViewCertificate",
      "outputs": [
        {
          "internalType": "bool",
          "name": "",
          "type": "bool"
        }
      ],
      "stateMutability": "view",
      "type": "function"
    },
    {
      "inputs": [
        {
          "internalType": "address",
          "name": "",
          "type": "address"
        },
        {
          "internalType": "address",
          "name": "",
          "type": "address"
        },
        {
          "internalType": "address",
          "name": "",
          "type": "address"
        },
        {
          "internalType": "string",
          "name": "",
          "type": "string"
        }
      ],
      "name": "certificateAccess",
      "outputs": [
        {
          "internalType": "bool",
          "name": "",
          "type": "bool"
        }
      ],
      "stateMutability": "view",
      "type": "function"
    },
    {
      "inputs": [
        {
          "internalType": "address",
          "name": "viewer",
          "type": "address"
        },
        {
          "internalType": "address",
          "name": "institution",
          "type": "address"
        },
        {
          "internalType": "string",
          "name": "certificateHash",
          "type": "string"
        }
      ],
      "name": "grantCertificateAccess",
      "outputs": [],
      "stateMutability": "nonpayable",
      "type": "function"
    },
    {
      "inputs": [
        {
          "internalType": "address",
          "name": "educational_institution",
          "type": "address"
        },
        {
          "internalType": "string",
          "name": "certificateHash",
          "type": "string"
        }
      ],
      "name": "removeCertificate",
      "outputs": [],
      "stateMutability": "nonpayable",
      "type": "function"
    }
  ],
  "bytecode": "0x6080604052348015600f57600080fd5b50336000806101000a81548173ffffffffffffffffffffffffffffffffffffffff021916908373ffffffffffffffffffffffffffffffffffffffff160217905550611dbc8061005f6000396000f3fe608060405234801561001057600080fd5b50600436106100a95760003560e01c8063767d345d11610071578063767d345d1461014e5780638bb64b9e1461016a578063bc83f3581461019a578063c5fb52f9146101b6578063d8be2f41146101d2578063fd368761146101ee576100a9565b80630fe8c788146100ae57806319a762bf146100ca578063352de7ef146100e657806337623234146101025780633a4dafa01461011e575b600080fd5b6100c860048036038101906100c39190611503565b61020a565b005b6100e460048036038101906100df9190611503565b6103b7565b005b61010060048036038101906100fb919061155f565b61068d565b005b61011c60048036038101906101179190611503565b6108e8565b005b610138600480360381019061013391906115ce565b610a95565b604051610145919061166c565b60405180910390f35b61016860048036038101906101639190611687565b610af4565b005b610184600480360381019061017f919061155f565b610c7a565b604051610191919061166c565b60405180910390f35b6101b460048036038101906101af91906116c7565b610d68565b005b6101d060048036038101906101cb9190611723565b610f6e565b005b6101ec60048036038101906101e79190611687565b61109a565b005b61020860048036038101906102039190611723565b611220565b005b60011515600260003373ffffffffffffffffffffffffffffffffffffffff1673ffffffffffffffffffffffffffffffffffffffff16815260200190815260200160002060009054906101000a900460ff1615151461029d576040517f08c379a0000000000000000000000000000000000000000000000000000000008152600401610294906117d3565b60405180910390fd5b6001600360003373ffffffffffffffffffffffffffffffffffffffff1673ffffffffffffffffffffffffffffffffffffffff16815260200190815260200160002060008373ffffffffffffffffffffffffffffffffffffffff1673ffffffffffffffffffffffffffffffffffffffff168152602001908152602001600020836040516103299190611864565b908152602001604051809103902060006101000a81548160ff0219169083151502179055508073ffffffffffffffffffffffffffffffffffffffff163373ffffffffffffffffffffffffffffffffffffffff167f469e8281eb0e01d2146a1879594ede9712f7b8e14e08dc90951ec614833bbf3f846040516103ab91906118b4565b60405180910390a35050565b60011515600460003373ffffffffffffffffffffffffffffffffffffffff1673ffffffffffffffffffffffffffffffffffffffff16815260200190815260200160002060008373ffffffffffffffffffffffffffffffffffffffff1673ffffffffffffffffffffffffffffffffffffffff16815260200190815260200160002060009054906101000a900460ff16151514610487576040517f08c379a000000000000000000000000000000000000000000000000000000000815260040161047e90611948565b60405180910390fd5b60011515600360008373ffffffffffffffffffffffffffffffffffffffff1673ffffffffffffffffffffffffffffffffffffffff16815260200190815260200160002060003373ffffffffffffffffffffffffffffffffffffffff1673ffffffffffffffffffffffffffffffffffffffff168152602001908152602001600020836040516105159190611864565b908152602001604051809103902060009054906101000a900460ff16151514610573576040517f08c379a000000000000000000000000000000000000000000000000000000000815260040161056a906119b4565b60405180910390fd5b6001600560003373ffffffffffffffffffffffffffffffffffffffff1673ffffffffffffffffffffffffffffffffffffffff16815260200190815260200160002060008373ffffffffffffffffffffffffffffffffffffffff1673ffffffffffffffffffffffffffffffffffffffff168152602001908152602001600020836040516105ff9190611864565b908152602001604051809103902060006101000a81548160ff0219169083151502179055508073ffffffffffffffffffffffffffffffffffffffff163373ffffffffffffffffffffffffffffffffffffffff167f75b383016694453bdcda61ec252396151c10446ec43ac96d79169e6eebea18b98460405161068191906118b4565b60405180910390a35050565b60011515600560003373ffffffffffffffffffffffffffffffffffffffff1673ffffffffffffffffffffffffffffffffffffffff16815260200190815260200160002060008473ffffffffffffffffffffffffffffffffffffffff1673ffffffffffffffffffffffffffffffffffffffff1681526020019081526020016000208260405161071b9190611864565b908152602001604051809103902060009054906101000a900460ff16151514610779576040517f08c379a000000000000000000000000000000000000000000000000000000000815260040161077090611a20565b60405180910390fd5b6001600660003373ffffffffffffffffffffffffffffffffffffffff1673ffffffffffffffffffffffffffffffffffffffff16815260200190815260200160002060008573ffffffffffffffffffffffffffffffffffffffff1673ffffffffffffffffffffffffffffffffffffffff16815260200190815260200160002060008473ffffffffffffffffffffffffffffffffffffffff1673ffffffffffffffffffffffffffffffffffffffff168152602001908152602001600020826040516108429190611864565b908152602001604051809103902060006101000a81548160ff0219169083151502179055508173ffffffffffffffffffffffffffffffffffffffff168373ffffffffffffffffffffffffffffffffffffffff163373ffffffffffffffffffffffffffffffffffffffff167f702a90f997ccc2f70443e4348a05e325daa07d45383364477dbebcbd037342c8846040516108db91906118b4565b60405180910390a4505050565b60011515600160003373ffffffffffffffffffffffffffffffffffffffff1673ffffffffffffffffffffffffffffffffffffffff16815260200190815260200160002060009054906101000a900460ff1615151461097b576040517f08c379a000000000000000000000000000000000000000000000000000000000815260040161097290611ab2565b60405180910390fd5b6001600360003373ffffffffffffffffffffffffffffffffffffffff1673ffffffffffffffffffffffffffffffffffffffff16815260200190815260200160002060008373ffffffffffffffffffffffffffffffffffffffff1673ffffffffffffffffffffffffffffffffffffffff16815260200190815260200160002083604051610a079190611864565b908152602001604051809103902060006101000a81548160ff0219169083151502179055508073ffffffffffffffffffffffffffffffffffffffff163373ffffffffffffffffffffffffffffffffffffffff167f6fc0636a167540538c8d7f32ef5463646209ddd8634c0dae02860d2a0b1532ea84604051610a8991906118b4565b60405180910390a35050565b60066020528360005260406000206020528260005260406000206020528160005260406000208180516020810182018051848252602083016020850120818352809550505050505060009350935050509054906101000a900460ff1681565b60011515600260008373ffffffffffffffffffffffffffffffffffffffff1673ffffffffffffffffffffffffffffffffffffffff16815260200190815260200160002060009054906101000a900460ff16151514610b87576040517f08c379a0000000000000000000000000000000000000000000000000000000008152600401610b7e90611b1e565b60405180910390fd5b6001600460008473ffffffffffffffffffffffffffffffffffffffff1673ffffffffffffffffffffffffffffffffffffffff16815260200190815260200160002060008373ffffffffffffffffffffffffffffffffffffffff1673ffffffffffffffffffffffffffffffffffffffff16815260200190815260200160002060006101000a81548160ff0219169083151502179055508073ffffffffffffffffffffffffffffffffffffffff168273ffffffffffffffffffffffffffffffffffffffff167fc0d7389df3bee4a49db6aff0e8053f6dd4ed56a4d294b572a052b3c4fa78467460405160405180910390a35050565b6000600660008573ffffffffffffffffffffffffffffffffffffffff1673ffffffffffffffffffffffffffffffffffffffff16815260200190815260200160002060003373ffffffffffffffffffffffffffffffffffffffff1673ffffffffffffffffffffffffffffffffffffffff16815260200190815260200160002060008473ffffffffffffffffffffffffffffffffffffffff1673ffffffffffffffffffffffffffffffffffffffff16815260200190815260200160002082604051610d439190611864565b908152602001604051809103902060009054906101000a900460ff1690509392505050565b60011515600560003373ffffffffffffffffffffffffffffffffffffffff1673ffffffffffffffffffffffffffffffffffffffff16815260200190815260200160002060008473ffffffffffffffffffffffffffffffffffffffff1673ffffffffffffffffffffffffffffffffffffffff16815260200190815260200160002082604051610df69190611864565b908152602001604051809103902060009054906101000a900460ff16151514610e54576040517f08c379a0000000000000000000000000000000000000000000000000000000008152600401610e4b90611bd6565b60405180910390fd5b6000600560003373ffffffffffffffffffffffffffffffffffffffff1673ffffffffffffffffffffffffffffffffffffffff16815260200190815260200160002060008473ffffffffffffffffffffffffffffffffffffffff1673ffffffffffffffffffffffffffffffffffffffff16815260200190815260200160002082604051610ee09190611864565b908152602001604051809103902060006101000a81548160ff0219169083151502179055508173ffffffffffffffffffffffffffffffffffffffff163373ffffffffffffffffffffffffffffffffffffffff167f6a84a549eb01dfc061e1474f9b76f93ec9bcca9094ff5d1d167dfbb420319ceb83604051610f6291906118b4565b60405180910390a35050565b60008054906101000a900473ffffffffffffffffffffffffffffffffffffffff1673ffffffffffffffffffffffffffffffffffffffff163373ffffffffffffffffffffffffffffffffffffffff1614610ffc576040517f08c379a0000000000000000000000000000000000000000000000000000000008152600401610ff390611c68565b60405180910390fd5b6001600260008373ffffffffffffffffffffffffffffffffffffffff1673ffffffffffffffffffffffffffffffffffffffff16815260200190815260200160002060006101000a81548160ff0219169083151502179055508073ffffffffffffffffffffffffffffffffffffffff167fe6fb573d611703ae4146c916c3a44112af4dccfdc6733a96af69a2142782597f60405160405180910390a250565b60011515600160008373ffffffffffffffffffffffffffffffffffffffff1673ffffffffffffffffffffffffffffffffffffffff16815260200190815260200160002060009054906101000a900460ff1615151461112d576040517f08c379a000000000000000000000000000000000000000000000000000000000815260040161112490611cd4565b60405180910390fd5b6001600460008473ffffffffffffffffffffffffffffffffffffffff1673ffffffffffffffffffffffffffffffffffffffff16815260200190815260200160002060008373ffffffffffffffffffffffffffffffffffffffff1673ffffffffffffffffffffffffffffffffffffffff16815260200190815260200160002060006101000a81548160ff0219169083151502179055508073ffffffffffffffffffffffffffffffffffffffff168273ffffffffffffffffffffffffffffffffffffffff167f57d33d69f24f18db483133c27ac3d73f31f1095d591d047e230e75fa51c49fd260405160405180910390a35050565b60008054906101000a900473ffffffffffffffffffffffffffffffffffffffff1673ffffffffffffffffffffffffffffffffffffffff163373ffffffffffffffffffffffffffffffffffffffff16146112ae576040517f08c379a00000000000000000000000000000000000000000000000000000000081526004016112a590611d66565b60405180910390fd5b60018060008373ffffffffffffffffffffffffffffffffffffffff1673ffffffffffffffffffffffffffffffffffffffff16815260200190815260200160002060006101000a81548160ff0219169083151502179055508073ffffffffffffffffffffffffffffffffffffffff167fafa166295a35a43bb39382953c2425d7baad8c51d67433474dad5c14da26e20d60405160405180910390a250565b6000604051905090565b600080fd5b600080fd5b600080fd5b600080fd5b6000601f19601f8301169050919050565b7f4e487b7100000000000000000000000000000000000000000000000000000000600052604160045260246000fd5b6113b282611369565b810181811067ffffffffffffffff821117156113d1576113d061137a565b5b80604052505050565b60006113e461134b565b90506113f082826113a9565b919050565b600067ffffffffffffffff8211156114105761140f61137a565b5b61141982611369565b9050602081019050919050565b82818337600083830152505050565b6000611448611443846113f5565b6113da565b90508281526020810184848401111561146457611463611364565b5b61146f848285611426565b509392505050565b600082601f83011261148c5761148b61135f565b5b813561149c848260208601611435565b91505092915050565b600073ffffffffffffffffffffffffffffffffffffffff82169050919050565b60006114d0826114a5565b9050919050565b6114e0816114c5565b81146114eb57600080fd5b50565b6000813590506114fd816114d7565b92915050565b6000806040838503121561151a57611519611355565b5b600083013567ffffffffffffffff8111156115385761153761135a565b5b61154485828601611477565b9250506020611555858286016114ee565b9150509250929050565b60008060006060848603121561157857611577611355565b5b6000611586868287016114ee565b9350506020611597868287016114ee565b925050604084013567ffffffffffffffff8111156115b8576115b761135a565b5b6115c486828701611477565b9150509250925092565b600080600080608085870312156115e8576115e7611355565b5b60006115f6878288016114ee565b9450506020611607878288016114ee565b9350506040611618878288016114ee565b925050606085013567ffffffffffffffff8111156116395761163861135a565b5b61164587828801611477565b91505092959194509250565b60008115159050919050565b61166681611651565b82525050565b6000602082019050611681600083018461165d565b92915050565b6000806040838503121561169e5761169d611355565b5b60006116ac858286016114ee565b92505060206116bd858286016114ee565b9150509250929050565b600080604083850312156116de576116dd611355565b5b60006116ec858286016114ee565b925050602083013567ffffffffffffffff81111561170d5761170c61135a565b5b61171985828601611477565b9150509250929050565b60006020828403121561173957611738611355565b5b6000611747848285016114ee565b91505092915050565b600082825260208201905092915050565b7f4f4e4c59204f4e4c494e4520504c4154464f524d532043414e2041444420434560008201527f5254494649434154455300000000000000000000000000000000000000000000602082015250565b60006117bd602a83611750565b91506117c882611761565b604082019050919050565b600060208201905081810360008301526117ec816117b0565b9050919050565b600081519050919050565b600081905092915050565b60005b8381101561182757808201518184015260208101905061180c565b60008484015250505050565b600061183e826117f3565b61184881856117fe565b9350611858818560208601611809565b80840191505092915050565b60006118708284611833565b915081905092915050565b6000611886826117f3565b6118908185611750565b93506118a0818560208601611809565b6118a981611369565b840191505092915050565b600060208201905081810360008301526118ce818461187b565b905092915050565b7f434f4c4c454745204f52204f4e4c494e4520504c4154464f524d20444f45532060008201527f4e4f542045584953540000000000000000000000000000000000000000000000602082015250565b6000611932602983611750565b915061193d826118d6565b604082019050919050565b6000602082019050818103600083015261196181611925565b9050919050565b7f54484520434552544946494341544520444f4553204e4f542045584953540000600082015250565b600061199e601e83611750565b91506119a982611968565b602082019050919050565b600060208201905081810360008301526119cd81611991565b9050919050565b7f434552544946494341544520444f4553204e4f54204558495354000000000000600082015250565b6000611a0a601a83611750565b9150611a15826119d4565b602082019050919050565b60006020820190508181036000830152611a39816119fd565b9050919050565b7f4f4e4c5920434f4c4c454745532043414e20414444204345525449464943415460008201527f4553000000000000000000000000000000000000000000000000000000000000602082015250565b6000611a9c602283611750565b9150611aa782611a40565b604082019050919050565b60006020820190508181036000830152611acb81611a8f565b9050919050565b7f4f4e4c494e4520504c4154464f524d20444f4553204e4f542045584953540000600082015250565b6000611b08601e83611750565b9150611b1382611ad2565b602082019050919050565b60006020820190508181036000830152611b3781611afb565b9050919050565b7f5448452053545544454e5420444f4553204e4f5420484156452054484953204360008201527f455254494649434154452046524f4d2054484520454455434154494f4e414c2060208201527f494e535449545554494f4e000000000000000000000000000000000000000000604082015250565b6000611bc0604b83611750565b9150611bcb82611b3e565b606082019050919050565b60006020820190508181036000830152611bef81611bb3565b9050919050565b7f4f4e4c59205448452041444d494e2043414e2041444420544845204f4e4c494e60008201527f4520504c4154464f524d00000000000000000000000000000000000000000000602082015250565b6000611c52602a83611750565b9150611c5d82611bf6565b604082019050919050565b60006020820190508181036000830152611c8181611c45565b9050919050565b7f434f4c4c45474520444f4553204e4f5420455849535400000000000000000000600082015250565b6000611cbe601683611750565b9150611cc982611c88565b602082019050919050565b60006020820190508181036000830152611ced81611cb1565b9050919050565b7f4f4e4c59205448452041444d494e2043414e204144442054484520434f4c4c4560008201527f4745000000000000000000000000000000000000000000000000000000000000602082015250565b6000611d50602283611750565b9150611d5b82611cf4565b604082019050919050565b60006020820190508181036000830152611d7f81611d43565b905091905056fea26469706673582212200bd79d93c790bdd24ee075c7cfb6f3fa08cdea4eacbda31f9bf400173b16965f64736f6c634300081c0033",
  "linkReferences": {},
  "deployedLinkReferences": {}
}