{
  "_format": "hh-sol-artifact-1",
  "contractName": "Digital_identity",
  "sourceName": "contracts/Lock.sol",
  "abi": [
    {
      "inputs": [],
      "stateMutability": "nonpayable",
      "type": "constructor"
    },
    {
      "anonymous": false,
      "inputs": [
        {
          "indexed": true,
          "internalType": "address",
          "name": "student",
          "type": "address"
        },
        {
          "indexed": true,
          "internalType": "address",
          "name": "viewer",
          "type": "address"
        },
        {
          "indexed": true,
          "internalType": "address",
          "name": "institution",
          "type": "address"
        },
        {
          "indexed": false,
          "internalType": "string",
          "name": "certificateHash",
          "type": "string"
        }
      ],
      "name": "CertificateAccessGranted",
      "type": "event"
    },
    {
      "anonymous": false,
      "inputs": [
        {
          "indexed": true,
          "internalType": "address",
          "name": "platform",
          "type": "address"
        },
        {
          "indexed": true,
          "internalType": "address",
          "name": "student",
          "type": "address"
        },
        {
          "indexed": false,
          "internalType": "string",
          "name": "certificateName",
          "type": "string"
        }
      ],
      "name": "CertificateAdded",
      "type": "event"
    },
    {
      "anonymous": false,
      "inputs": [
        {
          "indexed": true,
          "internalType": "address",
          "name": "student",
          "type": "address"
        },
        {
          "indexed": true,
          "internalType": "address",
          "name": "institution",
          "type": "address"
        },
        {
          "indexed": false,
          "internalType": "string",
          "name": "certificateHash",
          "type": "string"
        }
      ],
      "name": "CertificateForStudentAdded",
      "type": "event"
    },
    {
      "anonymous": false,
      "inputs": [
        {
          "indexed": true,
          "internalType": "address",
          "name": "student",
          "type": "address"
        },
        {
          "indexed": true,
          "internalType": "address",
          "name": "institution",
          "type": "address"
        },
        {
          "indexed": false,
          "internalType": "string",
          "name": "certificateHash",
          "type": "string"
        }
      ],
      "name": "CertificateRemoved",
      "type": "event"
    },
    {
      "anonymous": false,
      "inputs": [
        {
          "indexed": true,
          "internalType": "address",
          "name": "collegeAddress",
          "type": "address"
        }
      ],
      "name": "CollegeAdded",
      "type": "event"
    },
    {
      "anonymous": false,
      "inputs": [
        {
          "indexed": true,
          "internalType": "address",
          "name": "college",
          "type": "address"
        },
        {
          "indexed": true,
          "internalType": "address",
          "name": "student",
          "type": "address"
        },
        {
          "indexed": false,
          "internalType": "string",
          "name": "certificateName",
          "type": "string"
        }
      ],
      "name": "CollegeCertificateAdded",
      "type": "event"
    },
    {
      "anonymous": false,
      "inputs": [
        {
          "indexed": true,
          "internalType": "address",
          "name": "onlinePlatformAddress",
          "type": "address"
        }
      ],
      "name": "OnlinePlatformAdded",
      "type": "event"
    },
    {
      "anonymous": false,
      "inputs": [
        {
          "indexed": true,
          "internalType": "address",
          "name": "student",
          "type": "address"
        },
        {
          "indexed": true,
          "internalType": "address",
          "name": "collegeAddress",
          "type": "address"
        }
      ],
      "name": "StudentAddedToCollege",
      "type": "event"
    },
    {
      "anonymous": false,
      "inputs": [
        {
          "indexed": true,
          "internalType": "address",
          "name": "student",
          "type": "address"
        },
        {
          "indexed": true,
          "internalType": "address",
          "name": "onlinePlatformAddress",
          "type": "address"
        }
      ],
      "name": "StudentAddedToOnlinePlatform",
      "type": "event"
    },
    {
      "inputs": [
        {
          "internalType": "string",
          "name": "certificateName",
          "type": "string"
        },
        {
          "internalType": "address",
          "name": "student",
          "type": "address"
        }
      ],
      "name": "addCertificate",
      "outputs": [],
      "stateMutability": "nonpayable",
      "type": "function"
    },
    {
      "inputs": [
        {
          "internalType": "string",
          "name": "certificateHash",
          "type": "string"
        },
        {
          "internalType": "address",
          "name": "educational_institution",
          "type": "address"
        }
      ],
      "name": "addCertificateForStudent",
      "outputs": [],
      "stateMutability": "nonpayable",
      "type": "function"
    },
    {
      "inputs": [
        {
          "internalType": "address",
          "name": "college_address",
          "type": "address"
        }
      ],
      "name": "addCollege",
      "outputs": [],
      "stateMutability": "nonpayable",
      "type": "function"
    },
    {
      "inputs": [
        {
          "internalType": "string",
          "name": "certificateName",
          "type": "string"
        },
        {
          "internalType": "address",
          "name": "student",
          "type": "address"
        }
      ],
      "name": "addCollegeCertificate",
      "outputs": [],
      "stateMutability": "nonpayable",
      "type": "function"
    },
    {
      "inputs": [
        {
          "internalType": "address",
          "name": "onlineplatform_address",
          "type": "address"
        }
      ],
      "name": "addOnlinePlatform",
      "outputs": [],
      "stateMutability": "nonpayable",
      "type": "function"
    },
    {
      "inputs": [
        {
          "internalType": "address",
          "name": "student",
          "type": "address"
        },
        {
          "internalType": "address",
          "name": "college_address",
          "type": "address"
        }
      ],
      "name": "addStudentToCollege",
      "outputs": [],
      "stateMutability": "nonpayable",
      "type": "function"
    },
    {
      "inputs": [
        {
          "internalType": "address",
          "name": "student",
          "type": "address"
        },
        {
          "internalType": "address",
          "name": "online_platform_address",
          "type": "address"
        }
      ],
      "name": "addStudentToOnlinePlatform",
      "outputs": [],
      "stateMutability": "nonpayable",
      "type": "function"
    },
    {
      "inputs": [
        {
          "internalType": "address",
          "name": "student",
          "type": "address"
        },
        {
          "internalType": "address",
          "name": "institution",
          "type": "address"
        },
        {
          "internalType": "string",
          "name": "certificateHash",
          "type": "string"
        }
      ],
      "name": "canViewCertificate",
      "outputs": [
        {
          "internalType": "bool",
          "name": "",
          "type": "bool"
        }
      ],
      "stateMutability": "view",
      "type": "function"
    },
    {
      "inputs": [
        {
          "internalType": "address",
          "name": "",
          "type": "address"
        },
        {
          "internalType": "address",
          "name": "",
          "type": "address"
        },
        {
          "internalType": "address",
          "name": "",
          "type": "address"
        },
        {
          "internalType": "string",
          "name": "",
          "type": "string"
        }
      ],
      "name": "certificateAccess",
      "outputs": [
        {
          "internalType": "bool",
          "name": "",
          "type": "bool"
        }
      ],
      "stateMutability": "view",
      "type": "function"
    },
    {
      "inputs": [
        {
          "internalType": "address",
          "name": "viewer",
          "type": "address"
        },
        {
          "internalType": "address",
          "name": "institution",
          "type": "address"
        },
        {
          "internalType": "string",
          "name": "certificateHash",
          "type": "string"
        }
      ],
      "name": "grantCertificateAccess",
      "outputs": [],
      "stateMutability": "nonpayable",
      "type": "function"
    },
    {
      "inputs": [
        {
          "internalType": "address",
          "name": "educational_institution",
          "type": "address"
        },
        {
          "internalType": "string",
          "name": "certificateHash",
          "type": "string"
        }
      ],
      "name": "removeCertificate",
      "outputs": [],
      "stateMutability": "nonpayable",
      "type": "function"
    }
  ],
  "bytecode": "0x6080604052348015600f57600080fd5b50336000806101000a81548173ffffffffffffffffffffffffffffffffffffffff021916908373ffffffffffffffffffffffffffffffffffffffff160217905550611c648061005f6000396000f3fe608060405234801561001057600080fd5b50600436106100a95760003560e01c8063767d345d11610071578063767d345d1461014e5780638bb64b9e1461016a578063bc83f3581461019a578063c5fb52f9146101b6578063d8be2f41146101d2578063fd368761146101ee576100a9565b80630fe8c788146100ae57806319a762bf146100ca578063352de7ef146100e657806337623234146101025780633a4dafa01461011e575b600080fd5b6100c860048036038101906100c39190611417565b61020a565b005b6100e460048036038101906100df9190611417565b6103b7565b005b61010060048036038101906100fb9190611473565b6105a1565b005b61011c60048036038101906101179190611417565b6107fc565b005b610138600480360381019061013391906114e2565b6109a9565b6040516101459190611580565b60405180910390f35b6101686004803603810190610163919061159b565b610a08565b005b610184600480360381019061017f9190611473565b610b8e565b6040516101919190611580565b60405180910390f35b6101b460048036038101906101af91906115db565b610c7c565b005b6101d060048036038101906101cb9190611637565b610e82565b005b6101ec60048036038101906101e7919061159b565b610fae565b005b61020860048036038101906102039190611637565b611134565b005b60011515600260003373ffffffffffffffffffffffffffffffffffffffff1673ffffffffffffffffffffffffffffffffffffffff16815260200190815260200160002060009054906101000a900460ff1615151461029d576040517f08c379a0000000000000000000000000000000000000000000000000000000008152600401610294906116e7565b60405180910390fd5b6001600360003373ffffffffffffffffffffffffffffffffffffffff1673ffffffffffffffffffffffffffffffffffffffff16815260200190815260200160002060008373ffffffffffffffffffffffffffffffffffffffff1673ffffffffffffffffffffffffffffffffffffffff168152602001908152602001600020836040516103299190611778565b908152602001604051809103902060006101000a81548160ff0219169083151502179055508073ffffffffffffffffffffffffffffffffffffffff163373ffffffffffffffffffffffffffffffffffffffff167f469e8281eb0e01d2146a1879594ede9712f7b8e14e08dc90951ec614833bbf3f846040516103ab91906117c8565b60405180910390a35050565b60011515600460003373ffffffffffffffffffffffffffffffffffffffff1673ffffffffffffffffffffffffffffffffffffffff16815260200190815260200160002060008373ffffffffffffffffffffffffffffffffffffffff1673ffffffffffffffffffffffffffffffffffffffff16815260200190815260200160002060009054906101000a900460ff16151514610487576040517f08c379a000000000000000000000000000000000000000000000000000000000815260040161047e9061185c565b60405180910390fd5b6001600560003373ffffffffffffffffffffffffffffffffffffffff1673ffffffffffffffffffffffffffffffffffffffff16815260200190815260200160002060008373ffffffffffffffffffffffffffffffffffffffff1673ffffffffffffffffffffffffffffffffffffffff168152602001908152602001600020836040516105139190611778565b908152602001604051809103902060006101000a81548160ff0219169083151502179055508073ffffffffffffffffffffffffffffffffffffffff163373ffffffffffffffffffffffffffffffffffffffff167f75b383016694453bdcda61ec252396151c10446ec43ac96d79169e6eebea18b98460405161059591906117c8565b60405180910390a35050565b60011515600560003373ffffffffffffffffffffffffffffffffffffffff1673ffffffffffffffffffffffffffffffffffffffff16815260200190815260200160002060008473ffffffffffffffffffffffffffffffffffffffff1673ffffffffffffffffffffffffffffffffffffffff1681526020019081526020016000208260405161062f9190611778565b908152602001604051809103902060009054906101000a900460ff1615151461068d576040517f08c379a0000000000000000000000000000000000000000000000000000000008152600401610684906118c8565b60405180910390fd5b6001600660003373ffffffffffffffffffffffffffffffffffffffff1673ffffffffffffffffffffffffffffffffffffffff16815260200190815260200160002060008573ffffffffffffffffffffffffffffffffffffffff1673ffffffffffffffffffffffffffffffffffffffff16815260200190815260200160002060008473ffffffffffffffffffffffffffffffffffffffff1673ffffffffffffffffffffffffffffffffffffffff168152602001908152602001600020826040516107569190611778565b908152602001604051809103902060006101000a81548160ff0219169083151502179055508173ffffffffffffffffffffffffffffffffffffffff168373ffffffffffffffffffffffffffffffffffffffff163373ffffffffffffffffffffffffffffffffffffffff167f702a90f997ccc2f70443e4348a05e325daa07d45383364477dbebcbd037342c8846040516107ef91906117c8565b60405180910390a4505050565b60011515600160003373ffffffffffffffffffffffffffffffffffffffff1673ffffffffffffffffffffffffffffffffffffffff16815260200190815260200160002060009054906101000a900460ff1615151461088f576040517f08c379a00000000000000000000000000000000000000000000000000000000081526004016108869061195a565b60405180910390fd5b6001600360003373ffffffffffffffffffffffffffffffffffffffff1673ffffffffffffffffffffffffffffffffffffffff16815260200190815260200160002060008373ffffffffffffffffffffffffffffffffffffffff1673ffffffffffffffffffffffffffffffffffffffff1681526020019081526020016000208360405161091b9190611778565b908152602001604051809103902060006101000a81548160ff0219169083151502179055508073ffffffffffffffffffffffffffffffffffffffff163373ffffffffffffffffffffffffffffffffffffffff167f6fc0636a167540538c8d7f32ef5463646209ddd8634c0dae02860d2a0b1532ea8460405161099d91906117c8565b60405180910390a35050565b60066020528360005260406000206020528260005260406000206020528160005260406000208180516020810182018051848252602083016020850120818352809550505050505060009350935050509054906101000a900460ff1681565b60011515600260008373ffffffffffffffffffffffffffffffffffffffff1673ffffffffffffffffffffffffffffffffffffffff16815260200190815260200160002060009054906101000a900460ff16151514610a9b576040517f08c379a0000000000000000000000000000000000000000000000000000000008152600401610a92906119c6565b60405180910390fd5b6001600460008473ffffffffffffffffffffffffffffffffffffffff1673ffffffffffffffffffffffffffffffffffffffff16815260200190815260200160002060008373ffffffffffffffffffffffffffffffffffffffff1673ffffffffffffffffffffffffffffffffffffffff16815260200190815260200160002060006101000a81548160ff0219169083151502179055508073ffffffffffffffffffffffffffffffffffffffff168273ffffffffffffffffffffffffffffffffffffffff167fc0d7389df3bee4a49db6aff0e8053f6dd4ed56a4d294b572a052b3c4fa78467460405160405180910390a35050565b6000600660008573ffffffffffffffffffffffffffffffffffffffff1673ffffffffffffffffffffffffffffffffffffffff16815260200190815260200160002060003373ffffffffffffffffffffffffffffffffffffffff1673ffffffffffffffffffffffffffffffffffffffff16815260200190815260200160002060008473ffffffffffffffffffffffffffffffffffffffff1673ffffffffffffffffffffffffffffffffffffffff16815260200190815260200160002082604051610c579190611778565b908152602001604051809103902060009054906101000a900460ff1690509392505050565b60011515600560003373ffffffffffffffffffffffffffffffffffffffff1673ffffffffffffffffffffffffffffffffffffffff16815260200190815260200160002060008473ffffffffffffffffffffffffffffffffffffffff1673ffffffffffffffffffffffffffffffffffffffff16815260200190815260200160002082604051610d0a9190611778565b908152602001604051809103902060009054906101000a900460ff16151514610d68576040517f08c379a0000000000000000000000000000000000000000000000000000000008152600401610d5f90611a7e565b60405180910390fd5b6000600560003373ffffffffffffffffffffffffffffffffffffffff1673ffffffffffffffffffffffffffffffffffffffff16815260200190815260200160002060008473ffffffffffffffffffffffffffffffffffffffff1673ffffffffffffffffffffffffffffffffffffffff16815260200190815260200160002082604051610df49190611778565b908152602001604051809103902060006101000a81548160ff0219169083151502179055508173ffffffffffffffffffffffffffffffffffffffff163373ffffffffffffffffffffffffffffffffffffffff167f6a84a549eb01dfc061e1474f9b76f93ec9bcca9094ff5d1d167dfbb420319ceb83604051610e7691906117c8565b60405180910390a35050565b60008054906101000a900473ffffffffffffffffffffffffffffffffffffffff1673ffffffffffffffffffffffffffffffffffffffff163373ffffffffffffffffffffffffffffffffffffffff1614610f10576040517f08c379a0000000000000000000000000000000000000000000000000000000008152600401610f0790611b10565b60405180910390fd5b6001600260008373ffffffffffffffffffffffffffffffffffffffff1673ffffffffffffffffffffffffffffffffffffffff16815260200190815260200160002060006101000a81548160ff0219169083151502179055508073ffffffffffffffffffffffffffffffffffffffff167fe6fb573d611703ae4146c916c3a44112af4dccfdc6733a96af69a2142782597f60405160405180910390a250565b60011515600160008373ffffffffffffffffffffffffffffffffffffffff1673ffffffffffffffffffffffffffffffffffffffff16815260200190815260200160002060009054906101000a900460ff16151514611041576040517f08c379a000000000000000000000000000000000000000000000000000000000815260040161103890611b7c565b60405180910390fd5b6001600460008473ffffffffffffffffffffffffffffffffffffffff1673ffffffffffffffffffffffffffffffffffffffff16815260200190815260200160002060008373ffffffffffffffffffffffffffffffffffffffff1673ffffffffffffffffffffffffffffffffffffffff16815260200190815260200160002060006101000a81548160ff0219169083151502179055508073ffffffffffffffffffffffffffffffffffffffff168273ffffffffffffffffffffffffffffffffffffffff167f57d33d69f24f18db483133c27ac3d73f31f1095d591d047e230e75fa51c49fd260405160405180910390a35050565b60008054906101000a900473ffffffffffffffffffffffffffffffffffffffff1673ffffffffffffffffffffffffffffffffffffffff163373ffffffffffffffffffffffffffffffffffffffff16146111c2576040517f08c379a00000000000000000000000000000000000000000000000000000000081526004016111b990611c0e565b60405180910390fd5b60018060008373ffffffffffffffffffffffffffffffffffffffff1673ffffffffffffffffffffffffffffffffffffffff16815260200190815260200160002060006101000a81548160ff0219169083151502179055508073ffffffffffffffffffffffffffffffffffffffff167fafa166295a35a43bb39382953c2425d7baad8c51d67433474dad5c14da26e20d60405160405180910390a250565b6000604051905090565b600080fd5b600080fd5b600080fd5b600080fd5b6000601f19601f8301169050919050565b7f4e487b7100000000000000000000000000000000000000000000000000000000600052604160045260246000fd5b6112c68261127d565b810181811067ffffffffffffffff821117156112e5576112e461128e565b5b80604052505050565b60006112f861125f565b905061130482826112bd565b919050565b600067ffffffffffffffff8211156113245761132361128e565b5b61132d8261127d565b9050602081019050919050565b82818337600083830152505050565b600061135c61135784611309565b6112ee565b90508281526020810184848401111561137857611377611278565b5b61138384828561133a565b509392505050565b600082601f8301126113a05761139f611273565b5b81356113b0848260208601611349565b91505092915050565b600073ffffffffffffffffffffffffffffffffffffffff82169050919050565b60006113e4826113b9565b9050919050565b6113f4816113d9565b81146113ff57600080fd5b50565b600081359050611411816113eb565b92915050565b6000806040838503121561142e5761142d611269565b5b600083013567ffffffffffffffff81111561144c5761144b61126e565b5b6114588582860161138b565b925050602061146985828601611402565b9150509250929050565b60008060006060848603121561148c5761148b611269565b5b600061149a86828701611402565b93505060206114ab86828701611402565b925050604084013567ffffffffffffffff8111156114cc576114cb61126e565b5b6114d88682870161138b565b9150509250925092565b600080600080608085870312156114fc576114fb611269565b5b600061150a87828801611402565b945050602061151b87828801611402565b935050604061152c87828801611402565b925050606085013567ffffffffffffffff81111561154d5761154c61126e565b5b6115598782880161138b565b91505092959194509250565b60008115159050919050565b61157a81611565565b82525050565b60006020820190506115956000830184611571565b92915050565b600080604083850312156115b2576115b1611269565b5b60006115c085828601611402565b92505060206115d185828601611402565b9150509250929050565b600080604083850312156115f2576115f1611269565b5b600061160085828601611402565b925050602083013567ffffffffffffffff8111156116215761162061126e565b5b61162d8582860161138b565b9150509250929050565b60006020828403121561164d5761164c611269565b5b600061165b84828501611402565b91505092915050565b600082825260208201905092915050565b7f4f4e4c59204f4e4c494e4520504c4154464f524d532043414e2041444420434560008201527f5254494649434154455300000000000000000000000000000000000000000000602082015250565b60006116d1602a83611664565b91506116dc82611675565b604082019050919050565b60006020820190508181036000830152611700816116c4565b9050919050565b600081519050919050565b600081905092915050565b60005b8381101561173b578082015181840152602081019050611720565b60008484015250505050565b600061175282611707565b61175c8185611712565b935061176c81856020860161171d565b80840191505092915050565b60006117848284611747565b915081905092915050565b600061179a82611707565b6117a48185611664565b93506117b481856020860161171d565b6117bd8161127d565b840191505092915050565b600060208201905081810360008301526117e2818461178f565b905092915050565b7f434f4c4c454745204f52204f4e4c494e4520504c4154464f524d20444f45532060008201527f4e4f542045584953540000000000000000000000000000000000000000000000602082015250565b6000611846602983611664565b9150611851826117ea565b604082019050919050565b6000602082019050818103600083015261187581611839565b9050919050565b7f434552544946494341544520444f4553204e4f54204558495354000000000000600082015250565b60006118b2601a83611664565b91506118bd8261187c565b602082019050919050565b600060208201905081810360008301526118e1816118a5565b9050919050565b7f4f4e4c5920434f4c4c454745532043414e20414444204345525449464943415460008201527f4553000000000000000000000000000000000000000000000000000000000000602082015250565b6000611944602283611664565b915061194f826118e8565b604082019050919050565b6000602082019050818103600083015261197381611937565b9050919050565b7f4f4e4c494e4520504c4154464f524d20444f4553204e4f542045584953540000600082015250565b60006119b0601e83611664565b91506119bb8261197a565b602082019050919050565b600060208201905081810360008301526119df816119a3565b9050919050565b7f5448452053545544454e5420444f4553204e4f5420484156452054484953204360008201527f455254494649434154452046524f4d2054484520454455434154494f4e414c2060208201527f494e535449545554494f4e000000000000000000000000000000000000000000604082015250565b6000611a68604b83611664565b9150611a73826119e6565b606082019050919050565b60006020820190508181036000830152611a9781611a5b565b9050919050565b7f4f4e4c59205448452041444d494e2043414e2041444420544845204f4e4c494e60008201527f4520504c4154464f524d00000000000000000000000000000000000000000000602082015250565b6000611afa602a83611664565b9150611b0582611a9e565b604082019050919050565b60006020820190508181036000830152611b2981611aed565b9050919050565b7f434f4c4c45474520444f4553204e4f5420455849535400000000000000000000600082015250565b6000611b66601683611664565b9150611b7182611b30565b602082019050919050565b60006020820190508181036000830152611b9581611b59565b9050919050565b7f4f4e4c59205448452041444d494e2043414e204144442054484520434f4c4c4560008201527f4745000000000000000000000000000000000000000000000000000000000000602082015250565b6000611bf8602283611664565b9150611c0382611b9c565b604082019050919050565b60006020820190508181036000830152611c2781611beb565b905091905056fea26469706673582212206d7fff560f92cdbf2b5703577b7b171b98a3fb9238e21794795b3e9535898a7264736f6c634300081c0033",
  "linkReferences": {},
  "deployedLinkReferences": {}
}