{
  "_format": "hh-sol-artifact-1",
  "contractName": "Digital_identity",
  "sourceName": "contracts/Digital_identity.sol",
  "abi": [
    {
      "inputs": [],
      "stateMutability": "nonpayable",
      "type": "constructor"
    },
    {
      "anonymous": false,
      "inputs": [
        {
          "indexed": true,
          "internalType": "address",
          "name": "student",
          "type": "address"
        },
        {
          "indexed": true,
          "internalType": "address",
          "name": "viewer",
          "type": "address"
        },
        {
          "indexed": true,
          "internalType": "address",
          "name": "institution",
          "type": "address"
        },
        {
          "indexed": false,
          "internalType": "string",
          "name": "certificateHash",
          "type": "string"
        }
      ],
      "name": "CertificateAccessGranted",
      "type": "event"
    },
    {
      "anonymous": false,
      "inputs": [
        {
          "indexed": true,
          "internalType": "address",
          "name": "platform",
          "type": "address"
        },
        {
          "indexed": true,
          "internalType": "address",
          "name": "student",
          "type": "address"
        },
        {
          "indexed": false,
          "internalType": "string",
          "name": "certificateName",
          "type": "string"
        }
      ],
      "name": "CertificateAdded",
      "type": "event"
    },
    {
      "anonymous": false,
      "inputs": [
        {
          "indexed": true,
          "internalType": "address",
          "name": "student",
          "type": "address"
        },
        {
          "indexed": true,
          "internalType": "address",
          "name": "company",
          "type": "address"
        }
      ],
      "name": "CertificateRequested",
      "type": "event"
    },
    {
      "anonymous": false,
      "inputs": [
        {
          "indexed": true,
          "internalType": "address",
          "name": "collegeAddress",
          "type": "address"
        }
      ],
      "name": "CollegeAdded",
      "type": "event"
    },
    {
      "anonymous": false,
      "inputs": [
        {
          "indexed": true,
          "internalType": "address",
          "name": "college",
          "type": "address"
        },
        {
          "indexed": true,
          "internalType": "address",
          "name": "student",
          "type": "address"
        },
        {
          "indexed": false,
          "internalType": "string",
          "name": "certificateName",
          "type": "string"
        }
      ],
      "name": "CollegeCertificateAdded",
      "type": "event"
    },
    {
      "anonymous": false,
      "inputs": [
        {
          "indexed": true,
          "internalType": "address",
          "name": "onlinePlatformAddress",
          "type": "address"
        }
      ],
      "name": "OnlinePlatformAdded",
      "type": "event"
    },
    {
      "anonymous": false,
      "inputs": [
        {
          "indexed": true,
          "internalType": "address",
          "name": "student",
          "type": "address"
        },
        {
          "indexed": true,
          "internalType": "address",
          "name": "collegeAddress",
          "type": "address"
        }
      ],
      "name": "StudentAddedToCollege",
      "type": "event"
    },
    {
      "anonymous": false,
      "inputs": [
        {
          "indexed": true,
          "internalType": "address",
          "name": "student",
          "type": "address"
        },
        {
          "indexed": true,
          "internalType": "address",
          "name": "onlinePlatformAddress",
          "type": "address"
        }
      ],
      "name": "StudentAddedToOnlinePlatform",
      "type": "event"
    },
    {
      "anonymous": false,
      "inputs": [
        {
          "indexed": true,
          "internalType": "address",
          "name": "student",
          "type": "address"
        },
        {
          "indexed": false,
          "internalType": "string",
          "name": "certificateName",
          "type": "string"
        }
      ],
      "name": "StudentCertificateAdded",
      "type": "event"
    },
    {
      "anonymous": false,
      "inputs": [
        {
          "indexed": true,
          "internalType": "address",
          "name": "student",
          "type": "address"
        },
        {
          "indexed": false,
          "internalType": "string",
          "name": "certificateName",
          "type": "string"
        }
      ],
      "name": "StudentCertificateRemoved",
      "type": "event"
    },
    {
      "inputs": [
        {
          "internalType": "string",
          "name": "certificateName",
          "type": "string"
        },
        {
          "internalType": "address",
          "name": "student",
          "type": "address"
        }
      ],
      "name": "addCertificate",
      "outputs": [],
      "stateMutability": "nonpayable",
      "type": "function"
    },
    {
      "inputs": [
        {
          "internalType": "address",
          "name": "college_address",
          "type": "address"
        }
      ],
      "name": "addCollege",
      "outputs": [],
      "stateMutability": "nonpayable",
      "type": "function"
    },
    {
      "inputs": [
        {
          "internalType": "string",
          "name": "certificateName",
          "type": "string"
        },
        {
          "internalType": "address",
          "name": "student",
          "type": "address"
        }
      ],
      "name": "addCollegeCertificate",
      "outputs": [],
      "stateMutability": "nonpayable",
      "type": "function"
    },
    {
      "inputs": [
        {
          "internalType": "address",
          "name": "online_platform_address",
          "type": "address"
        }
      ],
      "name": "addOnlinePlatform",
      "outputs": [],
      "stateMutability": "nonpayable",
      "type": "function"
    },
    {
      "inputs": [
        {
          "internalType": "address",
          "name": "educationalplace",
          "type": "address"
        },
        {
          "internalType": "string",
          "name": "certificatehash",
          "type": "string"
        }
      ],
      "name": "addStudentCertificate",
      "outputs": [],
      "stateMutability": "nonpayable",
      "type": "function"
    },
    {
      "inputs": [
        {
          "internalType": "address",
          "name": "student",
          "type": "address"
        }
      ],
      "name": "addStudentToCollege",
      "outputs": [],
      "stateMutability": "nonpayable",
      "type": "function"
    },
    {
      "inputs": [
        {
          "internalType": "address",
          "name": "student",
          "type": "address"
        },
        {
          "internalType": "address",
          "name": "online_platform_address",
          "type": "address"
        }
      ],
      "name": "addStudentToOnlinePlatform",
      "outputs": [],
      "stateMutability": "nonpayable",
      "type": "function"
    },
    {
      "inputs": [
        {
          "internalType": "address",
          "name": "student",
          "type": "address"
        },
        {
          "internalType": "address",
          "name": "institution",
          "type": "address"
        },
        {
          "internalType": "string",
          "name": "certificateHash",
          "type": "string"
        }
      ],
      "name": "canViewCertificate",
      "outputs": [
        {
          "internalType": "bool",
          "name": "",
          "type": "bool"
        }
      ],
      "stateMutability": "view",
      "type": "function"
    },
    {
      "inputs": [
        {
          "internalType": "address",
          "name": "",
          "type": "address"
        },
        {
          "internalType": "address",
          "name": "",
          "type": "address"
        },
        {
          "internalType": "string",
          "name": "",
          "type": "string"
        }
      ],
      "name": "certificate",
      "outputs": [
        {
          "internalType": "bool",
          "name": "",
          "type": "bool"
        }
      ],
      "stateMutability": "view",
      "type": "function"
    },
    {
      "inputs": [
        {
          "internalType": "address",
          "name": "",
          "type": "address"
        },
        {
          "internalType": "address",
          "name": "",
          "type": "address"
        },
        {
          "internalType": "address",
          "name": "",
          "type": "address"
        },
        {
          "internalType": "string",
          "name": "",
          "type": "string"
        }
      ],
      "name": "certificateAccess",
      "outputs": [
        {
          "internalType": "bool",
          "name": "",
          "type": "bool"
        }
      ],
      "stateMutability": "view",
      "type": "function"
    },
    {
      "inputs": [
        {
          "internalType": "address",
          "name": "",
          "type": "address"
        }
      ],
      "name": "college",
      "outputs": [
        {
          "internalType": "bool",
          "name": "",
          "type": "bool"
        }
      ],
      "stateMutability": "view",
      "type": "function"
    },
    {
      "inputs": [],
      "name": "getCompanyRequests",
      "outputs": [
        {
          "internalType": "address[]",
          "name": "",
          "type": "address[]"
        }
      ],
      "stateMutability": "view",
      "type": "function"
    },
    {
      "inputs": [
        {
          "internalType": "address",
          "name": "student",
          "type": "address"
        }
      ],
      "name": "getStudentCertificatesForCompany",
      "outputs": [
        {
          "internalType": "string[]",
          "name": "",
          "type": "string[]"
        }
      ],
      "stateMutability": "view",
      "type": "function"
    },
    {
      "inputs": [
        {
          "internalType": "address",
          "name": "viewer",
          "type": "address"
        },
        {
          "internalType": "address",
          "name": "institution",
          "type": "address"
        },
        {
          "internalType": "string",
          "name": "certificateHash",
          "type": "string"
        }
      ],
      "name": "grantCertificateAccess",
      "outputs": [],
      "stateMutability": "nonpayable",
      "type": "function"
    },
    {
      "inputs": [
        {
          "internalType": "address",
          "name": "",
          "type": "address"
        }
      ],
      "name": "online_platform",
      "outputs": [
        {
          "internalType": "bool",
          "name": "",
          "type": "bool"
        }
      ],
      "stateMutability": "view",
      "type": "function"
    },
    {
      "inputs": [
        {
          "internalType": "string",
          "name": "certificateName",
          "type": "string"
        }
      ],
      "name": "removeStudentCertificate",
      "outputs": [],
      "stateMutability": "nonpayable",
      "type": "function"
    },
    {
      "inputs": [
        {
          "internalType": "address",
          "name": "student",
          "type": "address"
        },
        {
          "internalType": "address",
          "name": "viewer",
          "type": "address"
        }
      ],
      "name": "removeViewer",
      "outputs": [],
      "stateMutability": "nonpayable",
      "type": "function"
    },
    {
      "inputs": [
        {
          "internalType": "address",
          "name": "",
          "type": "address"
        },
        {
          "internalType": "uint256",
          "name": "",
          "type": "uint256"
        }
      ],
      "name": "request",
      "outputs": [
        {
          "internalType": "address",
          "name": "",
          "type": "address"
        }
      ],
      "stateMutability": "view",
      "type": "function"
    },
    {
      "inputs": [
        {
          "internalType": "address",
          "name": "student",
          "type": "address"
        }
      ],
      "name": "requestCertificateAccess",
      "outputs": [],
      "stateMutability": "nonpayable",
      "type": "function"
    },
    {
      "inputs": [
        {
          "internalType": "address",
          "name": "",
          "type": "address"
        },
        {
          "internalType": "string",
          "name": "",
          "type": "string"
        }
      ],
      "name": "studentCertificates",
      "outputs": [
        {
          "internalType": "bool",
          "name": "",
          "type": "bool"
        }
      ],
      "stateMutability": "view",
      "type": "function"
    },
    {
      "inputs": [
        {
          "internalType": "address",
          "name": "",
          "type": "address"
        },
        {
          "internalType": "address",
          "name": "",
          "type": "address"
        }
      ],
      "name": "students",
      "outputs": [
        {
          "internalType": "bool",
          "name": "",
          "type": "bool"
        }
      ],
      "stateMutability": "view",
      "type": "function"
    }
  ],
  "bytecode": "0x6080604052348015600f57600080fd5b50336000806101000a81548173ffffffffffffffffffffffffffffffffffffffff021916908373ffffffffffffffffffffffffffffffffffffffff160217905550612d2f8061005f6000396000f3fe608060405234801561001057600080fd5b50600436106101375760003560e01c806381cb69df116100b8578063bfcc19181161007c578063bfcc19181461035a578063c5fb52f91461038a578063c8c01a55146103a6578063cf86159d146103d6578063e491765b146103f2578063fd3687611461042257610137565b806381cb69df1461029257806387a77d2a146102c25780638bb64b9e146102de578063a2a82dd91461030e578063bbcc20f11461032a57610137565b80633a4dafa0116100ff5780633a4dafa0146101c85780634040d843146101f85780635e6276a114610216578063767d345d146102465780637ce847f61461026257610137565b80630fe8c7881461013c5780631e5d08371461015857806321ca12b514610174578063352de7ef1461019057806337623234146101ac575b600080fd5b61015660048036038101906101519190611f04565b61043e565b005b610172600480360381019061016d9190611f60565b6106bb565b005b61018e60048036038101906101899190611fbc565b61086d565b005b6101aa60048036038101906101a59190611fe9565b61096a565b005b6101c660048036038101906101c19190611f04565b610c7e565b005b6101e260048036038101906101dd9190612058565b610e2b565b6040516101ef91906120f6565b60405180910390f35b610200610e8a565b60405161020d91906121cf565b60405180910390f35b610230600480360381019061022b9190611fbc565b610f55565b60405161023d91906120f6565b60405180910390f35b610260600480360381019061025b91906121f1565b610f75565b005b61027c60048036038101906102779190611fbc565b6110fb565b6040516102899190612372565b60405180910390f35b6102ac60048036038101906102a791906121f1565b611250565b6040516102b991906120f6565b60405180910390f35b6102dc60048036038101906102d79190611fbc565b61127f565b005b6102f860048036038101906102f39190611fe9565b611404565b60405161030591906120f6565b60405180910390f35b61032860048036038101906103239190612394565b6114f2565b005b610344600480360381019061033f9190611f60565b61165d565b60405161035191906120f6565b60405180910390f35b610374600480360381019061036f9190611fe9565b6116a2565b60405161038191906120f6565b60405180910390f35b6103a4600480360381019061039f9190611fbc565b6116f4565b005b6103c060048036038101906103bb9190612413565b611820565b6040516103cd9190612462565b60405180910390f35b6103f060048036038101906103eb91906121f1565b61186e565b005b61040c60048036038101906104079190611fbc565b611a37565b60405161041991906120f6565b60405180910390f35b61043c60048036038101906104379190611fbc565b611a57565b005b60011515600360003373ffffffffffffffffffffffffffffffffffffffff1673ffffffffffffffffffffffffffffffffffffffff16815260200190815260200160002060009054906101000a900460ff161515146104d1576040517f08c379a00000000000000000000000000000000000000000000000000000000081526004016104c890612500565b60405180910390fd5b60011515600560008373ffffffffffffffffffffffffffffffffffffffff1673ffffffffffffffffffffffffffffffffffffffff16815260200190815260200160002060003373ffffffffffffffffffffffffffffffffffffffff1673ffffffffffffffffffffffffffffffffffffffff16815260200190815260200160002060009054906101000a900460ff161515146105a1576040517f08c379a000000000000000000000000000000000000000000000000000000000815260040161059890612592565b60405180910390fd5b6001600460003373ffffffffffffffffffffffffffffffffffffffff1673ffffffffffffffffffffffffffffffffffffffff16815260200190815260200160002060008373ffffffffffffffffffffffffffffffffffffffff1673ffffffffffffffffffffffffffffffffffffffff1681526020019081526020016000208360405161062d91906125ee565b908152602001604051809103902060006101000a81548160ff0219169083151502179055508073ffffffffffffffffffffffffffffffffffffffff163373ffffffffffffffffffffffffffffffffffffffff167f469e8281eb0e01d2146a1879594ede9712f7b8e14e08dc90951ec614833bbf3f846040516106af919061263e565b60405180910390a35050565b60011515600460008473ffffffffffffffffffffffffffffffffffffffff1673ffffffffffffffffffffffffffffffffffffffff16815260200190815260200160002060003373ffffffffffffffffffffffffffffffffffffffff1673ffffffffffffffffffffffffffffffffffffffff1681526020019081526020016000208260405161074991906125ee565b908152602001604051809103902060009054906101000a900460ff161515146107a7576040517f08c379a000000000000000000000000000000000000000000000000000000000815260040161079e906126ac565b60405180910390fd5b6001600860003373ffffffffffffffffffffffffffffffffffffffff1673ffffffffffffffffffffffffffffffffffffffff168152602001908152602001600020826040516107f691906125ee565b908152602001604051809103902060006101000a81548160ff0219169083151502179055503373ffffffffffffffffffffffffffffffffffffffff167f1d69191163a9642a645477269a4bf50f55ac6f9efe0003960eb2d263308a48a482604051610861919061263e565b60405180910390a25050565b600160008273ffffffffffffffffffffffffffffffffffffffff1673ffffffffffffffffffffffffffffffffffffffff168152602001908152602001600020339080600181540180825580915050600190039060005260206000200160009091909190916101000a81548173ffffffffffffffffffffffffffffffffffffffff021916908373ffffffffffffffffffffffffffffffffffffffff1602179055503373ffffffffffffffffffffffffffffffffffffffff168173ffffffffffffffffffffffffffffffffffffffff167f24074414c5e761e9e0be5cf97ab269e5bde1d5e04701d42a9e1f92e069b3650060405160405180910390a350565b60011515600460008473ffffffffffffffffffffffffffffffffffffffff1673ffffffffffffffffffffffffffffffffffffffff16815260200190815260200160002060003373ffffffffffffffffffffffffffffffffffffffff1673ffffffffffffffffffffffffffffffffffffffff168152602001908152602001600020826040516109f891906125ee565b908152602001604051809103902060009054906101000a900460ff16151514610a56576040517f08c379a0000000000000000000000000000000000000000000000000000000008152600401610a4d906126ac565b60405180910390fd5b6001600660003373ffffffffffffffffffffffffffffffffffffffff1673ffffffffffffffffffffffffffffffffffffffff16815260200190815260200160002060008573ffffffffffffffffffffffffffffffffffffffff1673ffffffffffffffffffffffffffffffffffffffff16815260200190815260200160002060008473ffffffffffffffffffffffffffffffffffffffff1673ffffffffffffffffffffffffffffffffffffffff16815260200190815260200160002082604051610b1f91906125ee565b908152602001604051809103902060006101000a81548160ff021916908315150217905550600760008473ffffffffffffffffffffffffffffffffffffffff1673ffffffffffffffffffffffffffffffffffffffff16815260200190815260200160002060003373ffffffffffffffffffffffffffffffffffffffff1673ffffffffffffffffffffffffffffffffffffffff16815260200190815260200160002081908060018154018082558091505060019003906000526020600020016000909190919091509081610bf291906128d8565b50610bfd3384611b83565b8173ffffffffffffffffffffffffffffffffffffffff168373ffffffffffffffffffffffffffffffffffffffff163373ffffffffffffffffffffffffffffffffffffffff167f702a90f997ccc2f70443e4348a05e325daa07d45383364477dbebcbd037342c884604051610c71919061263e565b60405180910390a4505050565b60011515600260003373ffffffffffffffffffffffffffffffffffffffff1673ffffffffffffffffffffffffffffffffffffffff16815260200190815260200160002060009054906101000a900460ff16151514610d11576040517f08c379a0000000000000000000000000000000000000000000000000000000008152600401610d0890612a1c565b60405180910390fd5b6001600460003373ffffffffffffffffffffffffffffffffffffffff1673ffffffffffffffffffffffffffffffffffffffff16815260200190815260200160002060008373ffffffffffffffffffffffffffffffffffffffff1673ffffffffffffffffffffffffffffffffffffffff16815260200190815260200160002083604051610d9d91906125ee565b908152602001604051809103902060006101000a81548160ff0219169083151502179055508073ffffffffffffffffffffffffffffffffffffffff163373ffffffffffffffffffffffffffffffffffffffff167f6fc0636a167540538c8d7f32ef5463646209ddd8634c0dae02860d2a0b1532ea84604051610e1f919061263e565b60405180910390a35050565b60066020528360005260406000206020528260005260406000206020528160005260406000208180516020810182018051848252602083016020850120818352809550505050505060009350935050509054906101000a900460ff1681565b6060600160003373ffffffffffffffffffffffffffffffffffffffff1673ffffffffffffffffffffffffffffffffffffffff168152602001908152602001600020805480602002602001604051908101604052809291908181526020018280548015610f4b57602002820191906000526020600020905b8160009054906101000a900473ffffffffffffffffffffffffffffffffffffffff1673ffffffffffffffffffffffffffffffffffffffff1681526020019060010190808311610f01575b5050505050905090565b60036020528060005260406000206000915054906101000a900460ff1681565b60011515600360008373ffffffffffffffffffffffffffffffffffffffff1673ffffffffffffffffffffffffffffffffffffffff16815260200190815260200160002060009054906101000a900460ff16151514611008576040517f08c379a0000000000000000000000000000000000000000000000000000000008152600401610fff90612a88565b60405180910390fd5b6001600560003373ffffffffffffffffffffffffffffffffffffffff1673ffffffffffffffffffffffffffffffffffffffff16815260200190815260200160002060008473ffffffffffffffffffffffffffffffffffffffff1673ffffffffffffffffffffffffffffffffffffffff16815260200190815260200160002060006101000a81548160ff0219169083151502179055508073ffffffffffffffffffffffffffffffffffffffff168273ffffffffffffffffffffffffffffffffffffffff167fc0d7389df3bee4a49db6aff0e8053f6dd4ed56a4d294b572a052b3c4fa78467460405160405180910390a35050565b6060600760003373ffffffffffffffffffffffffffffffffffffffff1673ffffffffffffffffffffffffffffffffffffffff16815260200190815260200160002060008373ffffffffffffffffffffffffffffffffffffffff1673ffffffffffffffffffffffffffffffffffffffff168152602001908152602001600020805480602002602001604051908101604052809291908181526020016000905b828210156112455783829060005260206000200180546111b8906126fb565b80601f01602080910402602001604051908101604052809291908181526020018280546111e4906126fb565b80156112315780601f1061120657610100808354040283529160200191611231565b820191906000526020600020905b81548152906001019060200180831161121457829003601f168201915b505050505081526020019060010190611199565b505050509050919050565b60056020528160005260406000206020528060005260406000206000915091509054906101000a900460ff1681565b60011515600260003373ffffffffffffffffffffffffffffffffffffffff1673ffffffffffffffffffffffffffffffffffffffff16815260200190815260200160002060009054906101000a900460ff16151514611312576040517f08c379a000000000000000000000000000000000000000000000000000000000815260040161130990612af4565b60405180910390fd5b6001600560008373ffffffffffffffffffffffffffffffffffffffff1673ffffffffffffffffffffffffffffffffffffffff16815260200190815260200160002060003373ffffffffffffffffffffffffffffffffffffffff1673ffffffffffffffffffffffffffffffffffffffff16815260200190815260200160002060006101000a81548160ff0219169083151502179055503373ffffffffffffffffffffffffffffffffffffffff168173ffffffffffffffffffffffffffffffffffffffff167f57d33d69f24f18db483133c27ac3d73f31f1095d591d047e230e75fa51c49fd260405160405180910390a350565b6000600660008573ffffffffffffffffffffffffffffffffffffffff1673ffffffffffffffffffffffffffffffffffffffff16815260200190815260200160002060003373ffffffffffffffffffffffffffffffffffffffff1673ffffffffffffffffffffffffffffffffffffffff16815260200190815260200160002060008473ffffffffffffffffffffffffffffffffffffffff1673ffffffffffffffffffffffffffffffffffffffff168152602001908152602001600020826040516114cd91906125ee565b908152602001604051809103902060009054906101000a900460ff1690509392505050565b60011515600860003373ffffffffffffffffffffffffffffffffffffffff1673ffffffffffffffffffffffffffffffffffffffff1681526020019081526020016000208260405161154391906125ee565b908152602001604051809103902060009054906101000a900460ff161515146115a1576040517f08c379a0000000000000000000000000000000000000000000000000000000008152600401611598906126ac565b60405180910390fd5b600860003373ffffffffffffffffffffffffffffffffffffffff1673ffffffffffffffffffffffffffffffffffffffff168152602001908152602001600020816040516115ee91906125ee565b908152602001604051809103902060006101000a81549060ff02191690553373ffffffffffffffffffffffffffffffffffffffff167f772ee192d303f4eb1080d8be478b0ff1a5b9df989f3a6fd2621260790b4814eb82604051611652919061263e565b60405180910390a250565b6008602052816000526040600020818051602081018201805184825260208301602085012081835280955050505050506000915091509054906101000a900460ff1681565b600460205282600052604060002060205281600052604060002081805160208101820180518482526020830160208501208183528095505050505050600092509250509054906101000a900460ff1681565b60008054906101000a900473ffffffffffffffffffffffffffffffffffffffff1673ffffffffffffffffffffffffffffffffffffffff163373ffffffffffffffffffffffffffffffffffffffff1614611782576040517f08c379a000000000000000000000000000000000000000000000000000000000815260040161177990612b86565b60405180910390fd5b6001600360008373ffffffffffffffffffffffffffffffffffffffff1673ffffffffffffffffffffffffffffffffffffffff16815260200190815260200160002060006101000a81548160ff0219169083151502179055508073ffffffffffffffffffffffffffffffffffffffff167fe6fb573d611703ae4146c916c3a44112af4dccfdc6733a96af69a2142782597f60405160405180910390a250565b6001602052816000526040600020818154811061183c57600080fd5b906000526020600020016000915091509054906101000a900473ffffffffffffffffffffffffffffffffffffffff1681565b6000600160008473ffffffffffffffffffffffffffffffffffffffff1673ffffffffffffffffffffffffffffffffffffffff168152602001908152602001600020905060005b8180549050811015611a31578273ffffffffffffffffffffffffffffffffffffffff168282815481106118ea576118e9612ba6565b5b9060005260206000200160009054906101000a900473ffffffffffffffffffffffffffffffffffffffff1673ffffffffffffffffffffffffffffffffffffffff1603611a245781600183805490506119429190612c04565b8154811061195357611952612ba6565b5b9060005260206000200160009054906101000a900473ffffffffffffffffffffffffffffffffffffffff1682828154811061199157611990612ba6565b5b9060005260206000200160006101000a81548173ffffffffffffffffffffffffffffffffffffffff021916908373ffffffffffffffffffffffffffffffffffffffff160217905550818054806119ea576119e9612c38565b5b6001900381819060005260206000200160006101000a81549073ffffffffffffffffffffffffffffffffffffffff02191690559055611a31565b80806001019150506118b4565b50505050565b60026020528060005260406000206000915054906101000a900460ff1681565b60008054906101000a900473ffffffffffffffffffffffffffffffffffffffff1673ffffffffffffffffffffffffffffffffffffffff163373ffffffffffffffffffffffffffffffffffffffff1614611ae5576040517f08c379a0000000000000000000000000000000000000000000000000000000008152600401611adc90612cd9565b60405180910390fd5b6001600260008373ffffffffffffffffffffffffffffffffffffffff1673ffffffffffffffffffffffffffffffffffffffff16815260200190815260200160002060006101000a81548160ff0219169083151502179055508073ffffffffffffffffffffffffffffffffffffffff167fafa166295a35a43bb39382953c2425d7baad8c51d67433474dad5c14da26e20d60405160405180910390a250565b6000600160008473ffffffffffffffffffffffffffffffffffffffff1673ffffffffffffffffffffffffffffffffffffffff168152602001908152602001600020905060005b8180549050811015611d46578273ffffffffffffffffffffffffffffffffffffffff16828281548110611bff57611bfe612ba6565b5b9060005260206000200160009054906101000a900473ffffffffffffffffffffffffffffffffffffffff1673ffffffffffffffffffffffffffffffffffffffff1603611d39578160018380549050611c579190612c04565b81548110611c6857611c67612ba6565b5b9060005260206000200160009054906101000a900473ffffffffffffffffffffffffffffffffffffffff16828281548110611ca657611ca5612ba6565b5b9060005260206000200160006101000a81548173ffffffffffffffffffffffffffffffffffffffff021916908373ffffffffffffffffffffffffffffffffffffffff16021790555081805480611cff57611cfe612c38565b5b6001900381819060005260206000200160006101000a81549073ffffffffffffffffffffffffffffffffffffffff02191690559055611d46565b8080600101915050611bc9565b50505050565b6000604051905090565b600080fd5b600080fd5b600080fd5b600080fd5b6000601f19601f8301169050919050565b7f4e487b7100000000000000000000000000000000000000000000000000000000600052604160045260246000fd5b611db382611d6a565b810181811067ffffffffffffffff82111715611dd257611dd1611d7b565b5b80604052505050565b6000611de5611d4c565b9050611df18282611daa565b919050565b600067ffffffffffffffff821115611e1157611e10611d7b565b5b611e1a82611d6a565b9050602081019050919050565b82818337600083830152505050565b6000611e49611e4484611df6565b611ddb565b905082815260208101848484011115611e6557611e64611d65565b5b611e70848285611e27565b509392505050565b600082601f830112611e8d57611e8c611d60565b5b8135611e9d848260208601611e36565b91505092915050565b600073ffffffffffffffffffffffffffffffffffffffff82169050919050565b6000611ed182611ea6565b9050919050565b611ee181611ec6565b8114611eec57600080fd5b50565b600081359050611efe81611ed8565b92915050565b60008060408385031215611f1b57611f1a611d56565b5b600083013567ffffffffffffffff811115611f3957611f38611d5b565b5b611f4585828601611e78565b9250506020611f5685828601611eef565b9150509250929050565b60008060408385031215611f7757611f76611d56565b5b6000611f8585828601611eef565b925050602083013567ffffffffffffffff811115611fa657611fa5611d5b565b5b611fb285828601611e78565b9150509250929050565b600060208284031215611fd257611fd1611d56565b5b6000611fe084828501611eef565b91505092915050565b60008060006060848603121561200257612001611d56565b5b600061201086828701611eef565b935050602061202186828701611eef565b925050604084013567ffffffffffffffff81111561204257612041611d5b565b5b61204e86828701611e78565b9150509250925092565b6000806000806080858703121561207257612071611d56565b5b600061208087828801611eef565b945050602061209187828801611eef565b93505060406120a287828801611eef565b925050606085013567ffffffffffffffff8111156120c3576120c2611d5b565b5b6120cf87828801611e78565b91505092959194509250565b60008115159050919050565b6120f0816120db565b82525050565b600060208201905061210b60008301846120e7565b92915050565b600081519050919050565b600082825260208201905092915050565b6000819050602082019050919050565b61214681611ec6565b82525050565b6000612158838361213d565b60208301905092915050565b6000602082019050919050565b600061217c82612111565b612186818561211c565b93506121918361212d565b8060005b838110156121c25781516121a9888261214c565b97506121b483612164565b925050600181019050612195565b5085935050505092915050565b600060208201905081810360008301526121e98184612171565b905092915050565b6000806040838503121561220857612207611d56565b5b600061221685828601611eef565b925050602061222785828601611eef565b9150509250929050565b600081519050919050565b600082825260208201905092915050565b6000819050602082019050919050565b600081519050919050565b600082825260208201905092915050565b60005b8381101561229757808201518184015260208101905061227c565b60008484015250505050565b60006122ae8261225d565b6122b88185612268565b93506122c8818560208601612279565b6122d181611d6a565b840191505092915050565b60006122e883836122a3565b905092915050565b6000602082019050919050565b600061230882612231565b612312818561223c565b9350836020820285016123248561224d565b8060005b85811015612360578484038952815161234185826122dc565b945061234c836122f0565b925060208a01995050600181019050612328565b50829750879550505050505092915050565b6000602082019050818103600083015261238c81846122fd565b905092915050565b6000602082840312156123aa576123a9611d56565b5b600082013567ffffffffffffffff8111156123c8576123c7611d5b565b5b6123d484828501611e78565b91505092915050565b6000819050919050565b6123f0816123dd565b81146123fb57600080fd5b50565b60008135905061240d816123e7565b92915050565b6000806040838503121561242a57612429611d56565b5b600061243885828601611eef565b9250506020612449858286016123fe565b9150509250929050565b61245c81611ec6565b82525050565b60006020820190506124776000830184612453565b92915050565b600082825260208201905092915050565b7f4f4e4c59204f4e4c494e4520504c4154464f524d532043414e2049535355452060008201527f4345525449464943415445530000000000000000000000000000000000000000602082015250565b60006124ea602c8361247d565b91506124f58261248e565b604082019050919050565b60006020820190508181036000830152612519816124dd565b9050919050565b7f5448452053545544454e5420444f4553204e4f5420484156452052455347495460008201527f455220494e20544845204f4e4c494e4520504c4154464f524d00000000000000602082015250565b600061257c60398361247d565b915061258782612520565b604082019050919050565b600060208201905081810360008301526125ab8161256f565b9050919050565b600081905092915050565b60006125c88261225d565b6125d281856125b2565b93506125e2818560208601612279565b80840191505092915050565b60006125fa82846125bd565b915081905092915050565b60006126108261225d565b61261a818561247d565b935061262a818560208601612279565b61263381611d6a565b840191505092915050565b600060208201905081810360008301526126588184612605565b905092915050565b7f434552544946494341544520444f4553204e4f54204558495354000000000000600082015250565b6000612696601a8361247d565b91506126a182612660565b602082019050919050565b600060208201905081810360008301526126c581612689565b9050919050565b7f4e487b7100000000000000000000000000000000000000000000000000000000600052602260045260246000fd5b6000600282049050600182168061271357607f821691505b602082108103612726576127256126cc565b5b50919050565b60008190508160005260206000209050919050565b60006020601f8301049050919050565b600082821b905092915050565b60006008830261278e7fffffffffffffffffffffffffffffffffffffffffffffffffffffffffffffffff82612751565b6127988683612751565b95508019841693508086168417925050509392505050565b6000819050919050565b60006127d56127d06127cb846123dd565b6127b0565b6123dd565b9050919050565b6000819050919050565b6127ef836127ba565b6128036127fb826127dc565b84845461275e565b825550505050565b600090565b61281861280b565b6128238184846127e6565b505050565b5b818110156128475761283c600082612810565b600181019050612829565b5050565b601f82111561288c5761285d8161272c565b61286684612741565b81016020851015612875578190505b61288961288185612741565b830182612828565b50505b505050565b600082821c905092915050565b60006128af60001984600802612891565b1980831691505092915050565b60006128c8838361289e565b9150826002028217905092915050565b6128e18261225d565b67ffffffffffffffff8111156128fa576128f9611d7b565b5b61290482546126fb565b61290f82828561284b565b600060209050601f8311600181146129425760008415612930578287015190505b61293a85826128bc565b8655506129a2565b601f1984166129508661272c565b60005b8281101561297857848901518255600182019150602085019450602081019050612953565b868310156129955784890151612991601f89168261289e565b8355505b6001600288020188555050505b505050505050565b7f4f4e4c5920434f4c4c454745532043414e20495353554520434552544946494360008201527f4154455300000000000000000000000000000000000000000000000000000000602082015250565b6000612a0660248361247d565b9150612a11826129aa565b604082019050919050565b60006020820190508181036000830152612a35816129f9565b9050919050565b7f4f4e4c494e4520504c4154464f524d20444f4553204e4f542045584953540000600082015250565b6000612a72601e8361247d565b9150612a7d82612a3c565b602082019050919050565b60006020820190508181036000830152612aa181612a65565b9050919050565b7f434f4c4c45474520444f4553204e4f5420455849535400000000000000000000600082015250565b6000612ade60168361247d565b9150612ae982612aa8565b602082019050919050565b60006020820190508181036000830152612b0d81612ad1565b9050919050565b7f4f4e4c59205448452041444d494e2043414e2041444420544845204f4e4c494e60008201527f4520504c4154464f524d00000000000000000000000000000000000000000000602082015250565b6000612b70602a8361247d565b9150612b7b82612b14565b604082019050919050565b60006020820190508181036000830152612b9f81612b63565b9050919050565b7f4e487b7100000000000000000000000000000000000000000000000000000000600052603260045260246000fd5b7f4e487b7100000000000000000000000000000000000000000000000000000000600052601160045260246000fd5b6000612c0f826123dd565b9150612c1a836123dd565b9250828203905081811115612c3257612c31612bd5565b5b92915050565b7f4e487b7100000000000000000000000000000000000000000000000000000000600052603160045260246000fd5b7f4f4e4c59205448452041444d494e2043414e204144442054484520434f4c4c4560008201527f4745000000000000000000000000000000000000000000000000000000000000602082015250565b6000612cc360228361247d565b9150612cce82612c67565b604082019050919050565b60006020820190508181036000830152612cf281612cb6565b905091905056fea2646970667358221220e383b4e9b15d8322dc4d300cc03c1a4d5efc21d8908d71e42aaf229e981020d864736f6c634300081c0033",
  "linkReferences": {},
  "deployedLinkReferences": {}
}